:100000000C94FA010C9422020C9422020C94220209
:100010000C9422020C9422020C9422020C942202D0
:100020000C9422020C9422020C9422020C942202C0
:100030000C9422020C9422020C9422020C942202B0
:100040000C94B90A0C9422020C94290B0C94030B07
:100050000C9422020C9422020C9422020C94220290
:100060000C9422020C9422024D656469612044655F
:100070006C61793A2000416D6269656E7420566F3B
:100080006C756D653A2000556E6B6E6F776E210052
:1000900053707269746520566964656F00436174BA
:1000A000616C6578204D703320416D6269656E74B6
:1000B000202B20536361726500436174616C657825
:1000C000204D7033205363617265204F6E6C790050
:1000D0004E6F6E65004D6564696120547970653AB4
:1000E000200054544C2054595045533A2000545445
:1000F0004C2050494E533A20200054696D696E6778
:10010000204F6666736574206D733A20004D6564F8
:1001100069612053657269616C2050696E3A2000F4
:10012000547269676765722050696E204F75743A22
:10013000200048692028746F20676E6420747269FB
:100140006767657229004C6F772028504952206FED
:1001500072202B2074726967676572290054726976
:100160006767657220416D6269656E7420547970AD
:10017000653A2000547269676765722050696E2085
:10018000696E3A2000556E6B6E6F776E0043757323
:10019000746F6D00536869656C64004465666175D1
:1001A0006C745F54544C0050696E204D61703A205D
:1001B00000496E76616C696420637573746F6D209D
:1001C00070696E6D61702C2072657365742E0042CB
:1001D0006F6F742044656C617920536563733A20B6
:1001E0000052657365742044656C617920536563C2
:1001F000733A2000536571204C656E20536563731C
:100200003A20004672616D6520436F756E743A2026
:1002100000436F6E666967204E4F5420464F554E1F
:10022000442C207573696E672064656661756C7413
:100230007300436F6E666967204F4B004F63746FA6
:1002400042616E6765722054544C2076005365718C
:1002500075656E636520636F6D706C6574652C20C9
:1002600052656164790057616974696E67206465DD
:100270006C617920736563733A2000506C61796911
:100280006E672073657175656E63652E2E2E00474F
:100290006F696E6720636F6C6420666F7220333005
:1002A00020736563730054726967676572206465C3
:1002B000746563746564206F6E2073746172747505
:1002C000702D0052656164790057616974696E67C9
:1002D00020666F7220426F6F742044656C61792EC6
:1002E0002E2E002E4F424300506C656173652072C4
:1002F00065636F6E6E6563740020636F6E66696719
:10030000206279746573005265636569766564205F
:1003100000537475636B206F6E3A2000556E6B6EE0
:100320006F776E20636F6E666967206C656E6774A9
:1003300068207061737365643A2000536176656468
:100340002C20526561647900536571204C656E20E4
:10035000536563733A2000206672616D65730072A5
:10036000656365697665642000537475636B206FFF
:100370006E3A2000756E6B20636861723A004E4FD2
:10038000004F4B005374616E6462792E2E2E005222
:10039000656164790000000000240027002A000045
:1003A000000000250028002B00000000002300268C
:1003B00000290004040404040404040202020202EA
:1003C0000203030303030301020408102040800119
:1003D0000204081020010204081020000000080098
:1003E0000201000003040700000000000000002ECE
:1003F00000005B0B11241FBECFEFD8E0DEBFCDBFE6
:1004000011E0A0E0B1E0E0EFF3E202C005900D9250
:10041000A239B107D9F726E0A2E9B1E001C01D92E7
:10042000AF33B207E1F711E0CAEFD1E004C0219782
:10043000FE010E94F011C93FD107C9F70E948C0B41
:100440000C94F6110C940000833081F028F4813074
:1004500099F08230A9F008958730A9F08830C9F06A
:100460008430B1F4809180008F7D03C08091800042
:100470008F7780938000089584B58F7784BD089529
:1004800084B58F7DFBCF8091B0008F778093B000D3
:1004900008958091B0008F7DF9CFCF93DF93282FFF
:1004A00030E0F901E552FC4F8491F901E953FC4F2A
:1004B000D491F901ED54FC4FC491CC23A1F08111EA
:1004C0000E942402EC2FF0E0EE0FFF1FE755FC4FD7
:1004D000A591B491EC91ED2381E090E009F480E0E6
:1004E000DF91CF91089580E090E0FACF1F93CF93F2
:1004F000DF93282F30E0F901E552FC4F8491F90198
:10050000E953FC4FD491F901ED54FC4FC491CC2335
:10051000A9F0162F81110E942402EC2FF0E0EE0FBB
:10052000FF1FE156FC4FA591B4918FB7F894EC9161
:10053000111108C0D095DE23DC938FBFDF91CF91DE
:100540001F910895DE2BF8CFCF92DF92EF92FF92AA
:100550000F931F93CF93DF939AE1C92E91E0D92E89
:1005600022E1E22E21E0F22ED0E0C0E0082F10E0E0
:10057000F60181916F01B8010C2E02C07595679547
:100580000A94E2F7617077276827F70181917F016C
:100590000E9476022196C830D10551F7DF91CF91A4
:1005A0001F910F91FF90EF90DF90CF900895CF9320
:1005B000DF9390E0FC01E953FC4F24918D549C4F54
:1005C000FC0184918823D1F090E0880F991FFC01F1
:1005D000EB56FC4FA591B491FC01E156FC4FC5913F
:1005E000D49161110EC09FB7F8948C91E22FE095E1
:1005F0008E238C932881E223E8839FBFDF91CF91E4
:1006000008958FB7F894EC91E22BEC938FBFF6CF5F
:100610003FB7F89480918C0590918D05A0918E053F
:10062000B0918F0526B5A89B05C02F3F19F0019604
:10063000A11DB11D3FBFBA2FA92F982F8827BC013C
:10064000CD01620F711D811D911D42E0660F771F64
:10065000881F991F4A95D1F708958F929F92AF9264
:10066000BF92CF92DF92EF92FF924B015C010E940A
:1006700008036B017C010E9408036C197D098E0937
:100680009F09683E734081059105A8F321E0821A15
:100690009108A108B10888EEC80E83E0D81EE11CBD
:1006A000F11C81149104A104B10429F7FF90EF908B
:1006B000DF90CF90BF90AF909F908F9008952FB70D
:1006C000F894609188057091890580918A059091D0
:1006D0008B052FBF0895AF92BF92CF92DF92EF921A
:1006E000FF920F931F93CF93DF936C017B018B01DC
:1006F000040F151FEB015E01AE18BF08C017D1072C
:1007000059F06991D601ED91FC910190F081E02DB5
:10071000C6010995892B79F7C501DF91CF911F910A
:100720000F91FF90EF90DF90CF90BF90AF90089522
:10073000FC01538D448D252F30E0842F90E0821BE7
:10074000930B541710F0CF96089501970895FC016C
:10075000918D828D981761F0A28DAE0FBF2FB11DC4
:100760005D968C91928D9F5F9F73928F90E008951C
:100770008FEF9FEF0895FC01918D828D981731F0D6
:10078000828DE80FF11D858D90E008958FEF9FEF2A
:100790000895FC01918D228D892F90E0805C9F4F00
:1007A000821B91098F739927089588E995E00E942B
:1007B000C90321E0892B09F420E0822F089580E00D
:1007C00090E0892B29F00E94D50381110C94000040
:1007D0000895FC01A48DA80FB92FB11DA35ABF4FD6
:1007E0002C91848D90E001968F739927848FA68930
:1007F000B7892C93A089B1898C91837080648C9384
:10080000938D848D981306C00288F389E02D808132
:100810008F7D80830895EF92FF920F931F93CF9364
:10082000DF93EC0181E0888F9B8D8C8D98131AC02B
:10083000E889F989808185FF15C09FB7F894EE8912
:10084000FF896083E889F98980818370806480836F
:100850009FBF81E090E0DF91CF911F910F91FF90BA
:10086000EF900895F62E0B8D10E00F5F1F4F0F7362
:100870001127E02E8C8D8E110CC00FB607FCFACF1D
:10088000E889F989808185FFF5CFCE010E94E903CF
:10089000F1CFEB8DEC0FFD2FF11DE35AFF4FF082EE
:1008A0009FB7F8940B8FEA89FB8980818062CFCF54
:1008B0000F931F93CF93DF938C01D0E0C0E0F8013A
:1008C000EC0FFD1F6491662341F088E995E00E94DA
:1008D0000B04892B11F02196F2CFCE01DF91CF913D
:1008E0001F910F910895CF93DF93EC01888D88239A
:1008F000B9F0AA89BB89E889F9898C9185FD03C083
:10090000808186FD0DC00FB607FCF7CF8C9185FF67
:10091000F2CF808185FFEDCFCE010E94E903E9CFC0
:10092000DF91CF91089588E995E00E94C903892B52
:1009300029F088E995E00E94A703F5CF0895CF93A9
:1009400088E995E00E94C903892BD1F388E995E0F5
:100950000E94A703C82F88E995E00E94C903892B4C
:10096000D1F388E995E00E94A70360E0782F6C2B13
:1009700090E080E0CF9108950F931F93CF93DF9382
:100980000E945F03009196011091970120919801B8
:10099000309199016017710782079307E0F0109179
:1009A0000301812F0E944D02EC018093920165E0CA
:1009B00070E080E090E00E942D03812F0E944D02A4
:1009C000209102019927DD27C80FD91F81E021114D
:1009D00004C0CD2B21F480E002C0CD2BE1F7DF91E4
:1009E000CF911F910F91089520E001972FEF8F3F36
:1009F0009207D9F70895FC0101900020E9F731979B
:100A0000AF01481B590BBC0188E995E00C946B03BE
:100A10008DE591E00C94FB04CF93DF930E94580482
:100A2000EC010E9408058C0F9D1FDF91CF91089566
:100A30008F929F92AF92BF920F931F93CF93DF93AA
:100A4000CDB7DEB7A1970FB6F894DEBF0FBECDBF0E
:100A500019A2423008F44AE08E010F5D1F4F842E28
:100A6000912CB12CA12CA50194010E94CE11E62F4E
:100A7000B901CA01EA30F4F4E05DD801EE938D01CA
:100A8000232B242B252B79F790E080E0109719F089
:100A9000CD010E94FB04A1960FB6F894DEBF0FBEF5
:100AA000CDBFDF91CF911F910F91BF90AF909F90DD
:100AB0008F900895E95CE1CFCF92DF92EF92FF92A1
:100AC000CF93DF936B017C016DE288E995E00E9492
:100AD0000B04EC0166277727CB016C197D098E0981
:100AE0009F094AE00E9418058C0F9D1FDF91CF914E
:100AF000FF90EF90DF90CF900895CF93DF93682F12
:100B000070E090E080E04AE00E941805EC010E944D
:100B100008058C0F9D1FDF91CF910895CF93DF9330
:100B2000BC01990F880B990B97FF0AC00E945C05C6
:100B3000EC010E9408058C0F9D1FDF91CF91089555
:100B40004AE00E941805F4CFCF938E3060F0C82F92
:100B500080E691E00E94FB042C2F2E50330BC9013C
:100B6000CF910C948E05CF910C947D05BC01990F0B
:100B7000880B990B97FD0C945C054AE00C941805C2
:100B8000FF920F931F93CF93DF93F82E0FB7F89434
:100B9000E0913A06F0913B06908180913506809570
:100BA0008923808380913D0690913E060E94F40443
:100BB000C8E0D0E011E0E0913A06F0913B06809168
:100BC00035069F2D912309F19081892B8083809197
:100BD0003D0690913E060E94F404110F219759F7AB
:100BE000E0913A06F0913B06808190913506892B81
:100BF00080830FBF80913D0690913E06DF91CF919B
:100C00001F910F91FF900C94F4049081809589239B
:100C1000DDCF0F931F93CF9390913706933079F1E7
:100C2000172FC62F082F64E170E080E090E00E944B
:100C30002D038EE7809390058FEF8093910586E0DA
:100C40008093920500939305109294051093950557
:100C5000C09396058FEE8093970500E915E0C8E0F4
:100C600080913D0690913E06892B21F0F80180810C
:100C70000E94C005C1500F5F1F4FC111F1CFCF912E
:100C80001F910F910895809137068150823000F5B1
:100C900070E060E086E10E94090664E170E080E0B7
:100CA00090E00E942D036091360670E086E00E947D
:100CB000090662E370E080E090E00E942D038091DD
:100CC0003706823029F461E070E088E00C94090670
:100CD00008954F925F926F927F928F929F92AF9200
:100CE000BF92CF92DF92EF92FF921F93CF93DF9349
:100CF0006B017C01D42FAC019B010E94C911882398
:100D0000C9F082E691E00E94FB04EC010E94080514
:100D10008C0F9D1FDF91CF911F91FF90EF90DF907F
:100D2000CF90BF90AF909F908F907F906F905F908B
:100D30004F90089546015701E894B7F82FEF3FEF21
:100D40004FE75FE7C501B4010E94C91181110DC0D1
:100D50002FEF3FEF4FE75FE7C501B4010E94FF0FA0
:100D600018161CF486E691E0CECF2FEF3FEF4FE749
:100D70005FE4C701B6010E94571118161CF48AE6F9
:100D800091E0C1CF2FEF3FEF4FE75FECC701B60116
:100D90000E94FF0F87FDF3CF20E030E0A901C701DB
:100DA000B6010E94FF0FB12CA12C87FF0AC06DE293
:100DB00088E995E00E940B045C01F7FAF094F7F8DB
:100DC000F0941D2F60E070E080E09FE3C0E020E041
:100DD00030E040E251E40E940410CF5FCD17B8F339
:100DE000A70196010E94930F6B017C010E9476106F
:100DF0002B013C010E94A5109B01AC01C701B6016B
:100E00000E94920F6B017C014AE0C301B2010E9473
:100E10001805EC016EE288E995E00E940B04C80F0A
:100E2000D91FCA0DDB1D115008F470CF20E030E04F
:100E300040E251E4C701B6010E945C114B015C0124
:100E40000E9476106B01F12CE12C4AE0C701B6013B
:100E50000E941805C80FD91FC701B6010E94A5102E
:100E60009B01AC01C501B4010E94920F6B017C0192
:100E7000DACF0F931F93CF93DF938C01D0E0C0E0C4
:100E8000C017D107D4F48FEE93E00E94580461E0BC
:100E90008DE00E94760264EF71E080E090E00E94B5
:100EA0002D0360E08DE00E94760264EF71E080E047
:100EB00090E00E942D032196E3CFDF91CF911F9107
:100EC0000F910C9408054F925F926F927F928F92D0
:100ED0009F92AF92BF92CF92DF92EF92FF92CF9309
:100EE000DF93CDB7DEB72A970FB6F894DEBF0FBEFB
:100EF000CDBF60E0809105010E9476028BE792E011
:100F00000E940C05809137068230B9F46091360654
:100F100070E086E00E94090662E370E080E090E005
:100F20000E942D0362E070E083E00E9409066AE0FF
:100F300070E080E090E00E942D03809137068130C0
:100F400029F461E070E083E00E9409068091370691
:100F5000833049F480913D0690913E06892B19F02B
:100F600081E00E94C005F12CE12C809138068E159D
:100F70001F0459F054F06AE070E080E090E00E94B5
:100F80002D032FEFE21AF20AF0CF64E670E080E062
:100F900090E00E942D0361E0809105010E9476029D
:100FA0001A8219820E945F036B837C838D839E83E8
:100FB000E09193016091070170910801809109010E
:100FC00090910A0124E0E29FF0011124EE5DFE4FB2
:100FD00020813181428153810E94930F6F837887F2
:100FE00089879A87C12CD12C7601809185059091B3
:100FF000860529813A81880F991F2817390708F03B
:1010000041C0E981FA81E356FE4F80810E94A4022B
:1010100089819A8101969A838983E981FA81E356CD
:10102000FE4F8081C80ED11CE11CF11C0E945F03A1
:101030000E94A5104B015C01C701B6010E94A510DA
:101040002F81388549855A850E945C112B013C010E
:101050006B817C818D819E810E94A5109B01AC01DA
:10106000C301B2010E94930F9B01AC01C501B40101
:101070000E94FF0F1816D4F689819A8101969A83EF
:101080008983B3CF80910101882341F086E692E005
:101090000E945804809101010E947D0580E00E9419
:1010A000A4020E9443068091010190E00E9439074A
:1010B00064E670E080E090E00E942D038DE492E011
:1010C0000E940C052A960FB6F894DEBF0FBECDBF66
:1010D000DF91CF91FF90EF90DF90CF90BF90AF90D6
:1010E0009F908F907F906F905F904F900C9493049F
:1010F0008F929F92AF92BF92CF92DF92EF92FF9228
:101100000F931F93CF93DF938CE392E00E945804D8
:10111000D0E0C0E0FE01E45FFE4F608170E090E04F
:1011200080E04AE00E94180561E070E080E090E015
:101130000E942D03C230D10509F44DC08EE691E026
:101140000E94FB042196C330D10521F780910B0149
:10115000882309F443C082E392E00E940C0583E0F7
:1011600092E00E945804609185057091860590E098
:1011700080E04AE00E9418050E940805D0E0C0E027
:10118000C12CD12C76018091850590918605880F20
:10119000991FC817D90728F5FE01E256FE4F608156
:1011A0008090070190900801A0900901B0900A0179
:1011B00070E090E080E00E94A510A50194010E94DB
:1011C0005C119B01AC01C701B6010E94930F6B013A
:1011D0007C012296D8CF0E940805B4CF81E192E02D
:1011E000BCCF84EF91E00E94580420E030E04AE751
:1011F00054E4C701B6010E94041042E050E00E948E
:10120000690681EE91E00E945804809101010E94DC
:101210007D0580919A01882341F08FEC91E00E9436
:10122000580480919A010E947D0580919401882341
:1012300081F081EB91E00E940C0580919501813055
:1012400009F453C058F0823009F452C085E891E0A7
:1012500007C087EA91E00E945804EFCF8BE991E044
:101260000E940C056CE271E080E090E00E942D038A
:1012700084E791E00E945804809103010E94A40534
:101280008DE591E00E94580480910201811133C0E4
:1012900086E491E00E940C0580E291E00E945804EF
:1012A000809104010E94A4058DE091E00E94580401
:1012B000809105010E94A4056CE271E080E090E05D
:1012C0000E942D0385ED90E00E945804809137061E
:1012D000813009F46DC090F0823009F483C083300E
:1012E00009F483C087E890E00BC084E991E0B8CFAF
:1012F0008DE891E0B5CF82E391E0CCCF80ED90E036
:101300000E940C058AEF90E00E945804E09193013E
:1013100084E0E89FF0011124EE5DFE4F6081718151
:101320008281938143E050E00E9469068EEE90E056
:101330000E94580402E111E0D0E0C0E0F801819180
:101340008F01082E000C990B0E94B605C730D105FD
:1013500009F44EC080E791E00E94FB042196C8305A
:10136000D10561F782EE90E00E9458040AE111E095
:10137000D0E0C0E0F80181918F0190E00E94B605B5
:10138000C730D105C1F180E791E00E94FB042196AE
:10139000C830D10579F7DF91CF911F910F91FF9060
:1013A000EF90DF90CF90BF90AF909F908F90089577
:1013B00089EB90E00E940C0586E790E00E945804BB
:1013C000809136060E947D0580913806882309F4B5
:1013D00099CF88E690E00E945804809138060E94D8
:1013E0007D0590CF8DE990E0E5CF80E990E0E2CFF8
:1013F0000E940805B3CF0E940805C9CF0C94840F42
:101400000C947C0FCF93DF9381E080930B01D0E0AD
:10141000C0E0CE0185509C4F0E94000AFE01E45FAF
:10142000FE4F9081981709F485C010920B018091AE
:101430000B01882309F475C089EE93E00E94000A2D
:1014400090E0909386058093850580918505909125
:101450008605982F8827909386058093850588EECA
:1014600093E00E94000A2091850530918605282B83
:1014700030938605209385058EEE93E00E94000A46
:10148000809301018FEE93E00E94000A80939A01FD
:101490008BEE93E00E94000A8093000180EF93E0BE
:1014A0000E94000A8093060180910601882321F0A2
:1014B000809106018F3118F08FE0809306018CEE49
:1014C00093E00E94000A80939B018DEE93E00E94BE
:1014D000000A80939C018AEE93E00E94000A8093A8
:1014E000950181EF93E00E94000A8093020182EF50
:1014F00093E00E94000A80939301EAE1F1E030E07A
:1015000020E08091000190E0022E02C09595879521
:101510000A94E2F7817081932F5F3F4F28303105A5
:1015200081F780919301823010F010929301DF9146
:10153000CF9108952196C530D10509F06ACF77CFB4
:10154000CF93DF938091850590918605892B71F06B
:10155000D0E0C0E0CE010E94000AFE01E356FE4F3B
:1015600080832196C83E83E0D807A1F7DF91CF9111
:1015700008951F920F920FB60F9211242F933F934D
:101580008F939F93AF93BF93809188059091890526
:10159000A0918A05B0918B053091870523E0230F38
:1015A0002D3758F50196A11DB11D20938705809315
:1015B000880590938905A0938A05B0938B05809147
:1015C0008C0590918D05A0918E05B0918F050196A7
:1015D000A11DB11D80938C0590938D05A0938E0560
:1015E000B0938F05BF91AF919F918F913F912F91B4
:1015F0000F900FBE0F901F90189526E8230F0296AC
:10160000A11DB11DD2CF1F920F920FB60F921124C0
:101610002F933F934F935F936F937F938F939F93FA
:10162000AF93BF93EF93FF9388E995E00E94E9039E
:10163000FF91EF91BF91AF919F918F917F916F91AA
:101640005F914F913F912F910F900FBE0F901F9080
:1016500018951F920F920FB60F9211242F938F930C
:101660009F93EF93FF93E091A805F091A9058081E6
:10167000E091AE05F091AF0582FD1BC09081809195
:10168000B1058F5F8F732091B205821741F0E09111
:10169000B105F0E0E856FA4F958F8093B105FF91C0
:1016A000EF919F918F912F910F900FBE0F901F90F0
:1016B00018958081F4CFE8E9F5E01382128288EE74
:1016C00093E0A0E0B0E084839583A683B7838FE4A2
:1016D00091E09183808385EC90E09587848784EC0A
:1016E00090E09787868780EC90E0918B808B81ECEF
:1016F00090E0938B828B82EC90E0958B848B86ECD0
:1017000090E0978B868B118E128E138E148EE5E3EC
:10171000F6E0148212820895789484B5826084BDC4
:1017200084B5816084BD85B5826085BD85B58160E5
:1017300085BD80916E00816080936E001092810063
:10174000809181008260809381008091810081601E
:1017500080938100809180008160809380008091DF
:10176000B10084608093B1008091B000816080936B
:10177000B00080917A00846080937A0080917A0032
:10178000826080937A0080917A00816080937A00F1
:1017900080917A00806880937A001092C1000E9444
:1017A000020A80919501833028F01092950181E022
:1017B0008093940180919501882309F190E080E065
:1017C0002BE030919501FC01239FE00DF11D1124C8
:1017D000E65DFE4F308132300CF4BCC13091950192
:1017E000FC01239FE00DF11D1124E65DFE4F3081C9
:1017F00036310CF0AFC101968830910511F762E1E6
:10180000E62E61E0F62E10E000E0DBE0809195012D
:10181000F801D89FE00DF11D1124E65DFE4F808197
:10182000F70181937F0161E00E94D7020F5F1F4F94
:101830000830110559F7E0919501DE9FF001112460
:10184000E65DFE4FC085C0930301E0919501DE9FE8
:10185000F0011124E65DFE4F118510930401E09123
:101860009501DE9FF0011124E65DFE4F8285809395
:10187000050180E00E94A40260E08C2F0E94D70244
:101880008091020160E0813009F461E08C2F0E94B8
:10189000760261E0812F0E94D70261E0812F0E94D1
:1018A000760261E08DE00E94D70260E08DE00E9448
:1018B0007602E091A805F091A90582E08083E0918D
:1018C000A405F091A5051082E091A605F091A70569
:1018D00080E180831092B005E091AC05F091AD05F8
:1018E00086E08083E091AA05F091AB05808180615C
:1018F0008083E091AA05F091AB05808188608083A8
:10190000E091AA05F091AB05808180688083E09129
:10191000AA05F091AB0580818F7D808383EE92E0F4
:101920000E940C05D0919C0180919B01C091060101
:1019300090910501809337062EEE30E030933E06FD
:1019400020933D06882309F478C0809139068111DF
:1019500053C090933C0680913C0661E00E94D70200
:1019600080913C0661E00E947602E0913C06F0E046
:10197000E953FC4FE491E0933506E0913C06F0E03A
:10198000ED54FC4FE491F0E0EE0FFF1FE156FC4FE9
:101990008591949190933B0680933A0680913C0602
:1019A00060E00E94760264EF71E080E090E00E94C7
:1019B0002D03809137068150823058F462E070E048
:1019C00089E00E94090664EF71E080E090E00E94E7
:1019D0002D0380913706833079F480913D069091F4
:1019E0003E06892B19F080E00E94C00564EF71E08B
:1019F00080E090E00E942D038FE080933606D09324
:101A000038068091370681508230A0F4CF3031F013
:101A10008FEF8C0F8E3110F4C0933606609136062E
:101A200070E086E00E94090668EC70E080E090E0DB
:101A30000E942D0381E0809339060E9443060E9494
:101A4000A00A0E94780880919A01882349F089ECC5
:101A500092E00E940C0580919A0190E00E94390763
:101A600068EE73E080E090E00E942D0383EC92E04A
:101A70000E940C050E9493040E94BC04882309F470
:101A80006FC086EA92E00E940C0564E670E080E098
:101A900090E00E942D038FE892E00E940C050E94C6
:101AA0005F03605D7A488F4F9F4F609396017093FC
:101AB0009701809398019093990140E0E42E40E0D3
:101AC000F42E7724739488E995E00E94C9031816D0
:101AD00019060CF05FC088E995E00E94A7038034E6
:101AE00009F058C065E070E080E090E00E942D03AE
:101AF00088E995E00E94C903181619060CF04AC03F
:101B000088E995E00E94A703C82F65E070E080E0B7
:101B100090E00E942D038C2F8354990BFC01449775
:101B200008F0DEC1EA56F24F0C94F011F20DF70DF9
:101B3000700F0D0E700FEB0D700F700F700F700F98
:101B4000610F700F660F540F700F700F230E570F39
:101B5000CD0EB30D1092950181E0809394014FCE8C
:101B60000E945F03A2CFD0E0C0E0C230D10571F186
:101B7000FE01E45FFE4F608170E090E080E04AE0AB
:101B80000E9418058EE691E00E94FB042196C33066
:101B9000D10559F780911101882361F00E94BC049E
:101BA000882341F08091850590918605892B11F05D
:101BB0000E946307E114F10409F485CF0E94D50364
:101BC000882309F480CF0E9400007DCF80910E0110
:101BD0000E947D05DBCF709211018FE893E00E9497
:101BE0000C05D8CF1092110184E893E0F8CFD0E033
:101BF000C0E0CE010E94000A682F88E995E00E94AB
:101C00000B0461E070E080E090E00E942D032196DB
:101C1000CB3F93E0D90769F7BDCFCAEED3E0CE0141
:101C20000E94000A682F88E995E00E940B0461E099
:101C300070E080E090E00E942D032196C33FE3E036
:101C4000DE0769F7A7CF88E995E00E94C903892BD1
:101C5000D1F30E949F044B016B01D0E0C0E0CC1592
:101C6000DD0570F5C83EF3E0DF0751F109EE13E042
:101C700088E995E00E94C903892BC1F4015011093C
:101C800071F489E693E00E945804CE010E948E050B
:101C900082E791E00E94FB040E9408057BCF61E08F
:101CA00070E080E090E00E942D03E2CF88E995E0AB
:101CB0000E94A703682FCE010E94FE092196CFCF74
:101CC0008FE593E00E94580496948794B40190E0C5
:101CD00080E04AE00E94180587E593E00E940C0529
:101CE0000E94A00A909286058092850580918505C4
:101CF00090918605692F89EE93E00E94FE0960911C
:101D000085057091860588EE93E00E94FE096CE2DD
:101D100071E080E090E00E942D03D0E0C0E0812CD3
:101D2000912C54018091850590918605880F991F0B
:101D3000C817D907F8F4FE01E256FE4F60812090E3
:101D40000701309008014090090150900A0170E0AD
:101D500090E080E00E94A510A20191010E945C1118
:101D60009B01AC01C501B4010E94930F4B015C01C2
:101D70002296D8CF88E493E00E94580420E030E017
:101D80004AE754E4C501B4010E94041042E050E067
:101D90000E9469068BE393E022CF88E995E00E94D8
:101DA000C903892BD1F30E949F044B015C0189E098
:101DB0008816910409F068C0D0E0C0E009EE13E095
:101DC00088E995E00E94C903892B69F40150110943
:101DD00019F481E193E057CF61E070E080E090E09A
:101DE0000E942D03EDCF88E995E00E94A703682F9C
:101DF000CE0186519C4F0E94FE092196C930D10523
:101E0000E9F687E093E00E9458044AE069E070E058
:101E100080E090E00E94180589EF92E00E940C0596
:101E200088EE92E00E940C0580910B01811115C093
:101E30001092860510928505809185059091860502
:101E4000692F89EE93E00E94FE09609185057091EB
:101E5000860588EE93E00E94FE09D0E0C0E0FE0116
:101E6000E45FFE4F6081CE0185509C4F0E94FE09C9
:101E70002196C530D10599F770920B010E94020A94
:101E800080E00E94A40286CE8CE193E00E94580478
:101E9000C501B401882799274AE00E9418050E94CD
:101EA00008050E94930476CE0E94780873CE809134
:101EB000850590918605892B09F46CCE0E946307F5
:101EC00069CE88E995E00E94A703DBCF80910B01E2
:101ED000882319F081E893E082CE8EE793E07FCEED
:101EE00084E793E00E9458046C2F70E090E080E05B
:101EF0004AE00E941805D5CFF999FECF92BD81BD69
:101F0000F89A992780B50895262FF999FECF1FBA20
:101F100092BD81BD20BD0FB6F894FA9AF99A0FBE12
:101F2000019608955058BB27AA270E94AA0F0C9427
:101F30001D110E940F1138F00E94161120F039F483
:101F40009F3F19F426F40C940C110EF4E095E7FB76
:101F50000C940611E92F0E942E1158F3BA1762074C
:101F600073078407950720F079F4A6F50C945011B7
:101F70000EF4E0950B2EBA2FA02D0B01B9019001A4
:101F80000C01CA01A0011124FF27591B99F0593FE8
:101F900050F4503E68F11A16F040A22F232F342F30
:101FA0004427585FF3CF469537952795A795F0407E
:101FB0005395C9F77EF41F16BA0B620B730B840B93
:101FC000BAF09150A1F0FF0FBB1F661F771F881F4B
:101FD000C2F70EC0BA0F621F731F841F48F48795A3
:101FE00077956795B795F7959E3F08F0B0CF939595
:101FF000880F08F09927EE0F9795879508950E940E
:10200000E21008F481E008950E9418100C941D114C
:102010000E94161158F00E940F1140F029F45F3F02
:1020200029F00C94061151110C9451110C940C11BF
:102030000E942E1168F39923B1F3552391F3951B58
:10204000550BBB27AA2762177307840738F09F5FD9
:102050005F4F220F331F441FAA1FA9F335D00E2E46
:102060003AF0E0E832D091505040E695001CCAF7B3
:102070002BD0FE2F29D0660F771F881FBB1F261776
:1020800037074807AB07B0E809F0BB0B802DBF014D
:10209000FF2793585F4F3AF09E3F510578F00C941C
:1020A00006110C9451115F3FE4F3983ED4F38695EA
:1020B00077956795B795F7959F5FC9F7880F911D3D
:1020C0009695879597F90895E1E0660F771F881F29
:1020D000BB1F621773078407BA0720F0621B730BDC
:1020E000840BBA0BEE1F88F7E09508950E94361115
:1020F00088F09F5798F0B92F9927B751B0F0E1F0C9
:10210000660F771F881F991F1AF0BA95C9F714C078
:10211000B13091F00E945011B1E008950C9450112B
:10212000672F782F8827B85F39F0B93FCCF38695B1
:1021300077956795B395D9F73EF49095809570950E
:1021400061957F4F8F4F9F4F0895E89409C097FB8B
:102150003EF490958095709561957F4F8F4F9F4F7E
:102160009923A9F0F92F96E9BB279395F6958795C2
:1021700077956795B795F111F8CFFAF4BB0F11F485
:1021800060FF1BC06F5F7F4F8F4F9F4F16C088232C
:1021900011F096E911C0772321F09EE8872F762F62
:1021A00005C0662371F096E8862F70E060E02AF0A3
:1021B0009A95660F771F881FDAF7880F969587958F
:1021C00097F90895990F0008550FAA0BE0E8FEEF64
:1021D00016161706E807F907C0F012161306E407EB
:1021E000F50798F0621B730B840B950B39F40A26E4
:1021F00061F0232B242B252B21F408950A2609F4C2
:10220000A140A6958FEF811D811D089597F99F67C5
:1022100080E870E060E008959FEF80EC089500246E
:102220000A941616170618060906089500240A943B
:1022300012161306140605060895092E0394000CC1
:1022400011F4882352F0BB0F40F4BF2B11F460FF50
:1022500004C06F5F7F4F8F4F9F4F089557FD905879
:10226000440F551F59F05F3F71F04795880F97FB5A
:10227000991F61F09F3F79F0879508951216130614
:102280001406551FF2CF4695F1DF08C01616170643
:102290001806991FF1CF8695710561050894089578
:1022A000E894BB2766277727CB0197F908950E940A
:1022B000E21008F48FEF08950E946F110C941D1125
:1022C0000E940F1138F00E94161120F0952311F092
:1022D0000C9406110C940C1111240C9451110E94B1
:1022E0002E1170F3959FC1F3950F50E0551F629F1B
:1022F000F001729FBB27F00DB11D639FAA27F00D5F
:10230000B11DAA1F649F6627B00DA11D661F829F85
:102310002227B00DA11D621F739FB00DA11D621F6A
:10232000839FA00D611D221F749F3327A00D611D87
:10233000231F849F600D211D822F762F6A2F112469
:102340009F5750409AF0F1F088234AF0EE0FFF1F9C
:10235000BB1F661F771F881F91505040A9F79E3FF3
:10236000510580F00C9406110C9451115F3FE4F379
:10237000983ED4F3869577956795B795F795E79549
:102380009F5FC1F7FE2B880F911D9695879597F952
:1023900008950E94E210880B990B0895A1E21A2E6D
:1023A000AA1BBB1BFD010DC0AA1FBB1FEE1FFF1FF9
:1023B000A217B307E407F50720F0A21BB30BE40B49
:1023C000F50B661F771F881F991F1A9469F7609590
:1023D0007095809590959B01AC01BD01CF0108954A
:1023E000EE0FFF1F0590F491E02D0994F894FFCFB4
:1023F000FF1E010B0A0C16000048420108020002F1
:102400000601020304050607080901010101010193
:102410000101295CCFBE0000000005060708090E77
:102420000F1004020305060708090E0F100402032B
:1024300005060708090E0F10040203000000000B38
:10244000046B0398037304C903A703BB030D0A00BD
:1024500041006E616E00696E66006F7666002E0048
:102460002C0055706C6F6164207465726D696E61CB
:102470007465642C20706C6561736520726574727C
:022480007900E1
:00000001FF
